{
  "contractName": "Fomo3D",
  "abi": [
    {
      "inputs": [],
      "name": "currentState",
      "outputs": [
        {
          "internalType": "enum Fomo3D.State",
          "name": "",
          "type": "uint8"
        }
      ],
      "stateMutability": "view",
      "type": "function"
    },
    {
      "inputs": [],
      "name": "end",
      "outputs": [
        {
          "internalType": "uint256",
          "name": "",
          "type": "uint256"
        }
      ],
      "stateMutability": "view",
      "type": "function"
    },
    {
      "inputs": [],
      "name": "hardEnd",
      "outputs": [
        {
          "internalType": "uint256",
          "name": "",
          "type": "uint256"
        }
      ],
      "stateMutability": "view",
      "type": "function"
    },
    {
      "inputs": [],
      "name": "houseFee",
      "outputs": [
        {
          "internalType": "uint256",
          "name": "",
          "type": "uint256"
        }
      ],
      "stateMutability": "view",
      "type": "function"
    },
    {
      "inputs": [],
      "name": "initialKeyPrice",
      "outputs": [
        {
          "internalType": "uint256",
          "name": "",
          "type": "uint256"
        }
      ],
      "stateMutability": "view",
      "type": "function"
    },
    {
      "inputs": [
        {
          "internalType": "uint256",
          "name": "",
          "type": "uint256"
        }
      ],
      "name": "keyHolders",
      "outputs": [
        {
          "internalType": "address payable",
          "name": "",
          "type": "address"
        }
      ],
      "stateMutability": "view",
      "type": "function"
    },
    {
      "inputs": [
        {
          "internalType": "address",
          "name": "",
          "type": "address"
        }
      ],
      "name": "keys",
      "outputs": [
        {
          "internalType": "uint256",
          "name": "",
          "type": "uint256"
        }
      ],
      "stateMutability": "view",
      "type": "function"
    },
    {
      "inputs": [],
      "name": "king",
      "outputs": [
        {
          "internalType": "address payable",
          "name": "",
          "type": "address"
        }
      ],
      "stateMutability": "view",
      "type": "function"
    },
    {
      "inputs": [],
      "name": "pot",
      "outputs": [
        {
          "internalType": "uint256",
          "name": "",
          "type": "uint256"
        }
      ],
      "stateMutability": "view",
      "type": "function"
    },
    {
      "inputs": [],
      "name": "start",
      "outputs": [
        {
          "internalType": "uint256",
          "name": "",
          "type": "uint256"
        }
      ],
      "stateMutability": "view",
      "type": "function"
    },
    {
      "inputs": [],
      "name": "totalKeys",
      "outputs": [
        {
          "internalType": "uint256",
          "name": "",
          "type": "uint256"
        }
      ],
      "stateMutability": "view",
      "type": "function"
    },
    {
      "inputs": [],
      "name": "kickStart",
      "outputs": [],
      "stateMutability": "nonpayable",
      "type": "function"
    },
    {
      "inputs": [],
      "name": "bet",
      "outputs": [],
      "stateMutability": "payable",
      "type": "function"
    },
    {
      "inputs": [],
      "name": "getKeyPrice",
      "outputs": [
        {
          "internalType": "uint256",
          "name": "",
          "type": "uint256"
        }
      ],
      "stateMutability": "view",
      "type": "function"
    }
  ],
  "bytecode": "0x608060405260008060006101000a81548160ff0219169083600181111561002257fe5b0217905550600260055534801561003857600080fd5b50610bae806100486000396000f3fe6080604052600436106100dd5760003560e01c8063a3b235bc1161007f578063cc181ca811610059578063cc181ca8146102a3578063ce702329146102fa578063ef94d66114610325578063efbe1c1c146103a0576100dd565b8063a3b235bc14610236578063a440a1901461024d578063be9a655514610278576100dd565b8063488bdabc116100bb578063488bdabc146101505780634ba2363a1461017b578063670d14b2146101a65780638c77c15f1461020b576100dd565b80630c3f6acf146100e25780630ed469b81461011b57806311610c2514610146575b600080fd5b3480156100ee57600080fd5b506100f76103cb565b6040518082600181111561010757fe5b60ff16815260200191505060405180910390f35b34801561012757600080fd5b506101306103dd565b6040518082815260200191505060405180910390f35b61014e6103e3565b005b34801561015c57600080fd5b506101656106df565b6040518082815260200191505060405180910390f35b34801561018757600080fd5b506101906106e5565b6040518082815260200191505060405180910390f35b3480156101b257600080fd5b506101f5600480360360208110156101c957600080fd5b81019080803573ffffffffffffffffffffffffffffffffffffffff1690602001909291905050506106eb565b6040518082815260200191505060405180910390f35b34801561021757600080fd5b50610220610703565b6040518082815260200191505060405180910390f35b34801561024257600080fd5b5061024b610709565b005b34801561025957600080fd5b506102626107d2565b6040518082815260200191505060405180910390f35b34801561028457600080fd5b5061028d6107fa565b6040518082815260200191505060405180910390f35b3480156102af57600080fd5b506102b8610800565b604051808273ffffffffffffffffffffffffffffffffffffffff1673ffffffffffffffffffffffffffffffffffffffff16815260200191505060405180910390f35b34801561030657600080fd5b5061030f610826565b6040518082815260200191505060405180910390f35b34801561033157600080fd5b5061035e6004803603602081101561034857600080fd5b810190808035906020019092919050505061082c565b604051808273ffffffffffffffffffffffffffffffffffffffff1673ffffffffffffffffffffffffffffffffffffffff16815260200191505060405180910390f35b3480156103ac57600080fd5b506103b5610868565b6040518082815260200191505060405180910390f35b6000809054906101000a900460ff1681565b60055481565b60018060018111156103f157fe5b6000809054906101000a900460ff16600181111561040b57fe5b1461047e576040517f08c379a000000000000000000000000000000000000000000000000000000000815260040180806020018281038252601d8152602001807f6e6f7420706f737369626c6520696e2063757272656e7420737461746500000081525060200191505060405180910390fd5b60025442118061048f575060035442115b156104f0573373ffffffffffffffffffffffffffffffffffffffff166108fc349081150290604051600060405180830381858888f193505050501580156104da573d6000803e3d6000fd5b506104e361086e565b6104eb610a53565b6106dc565b60006104fa6107d2565b348161050257fe5b04905080600960003373ffffffffffffffffffffffffffffffffffffffff1673ffffffffffffffffffffffffffffffffffffffff1681526020019081526020016000206000828254019250508190555080600760008282540192505081905550600080905060008090505b6008805490508110156105f7573373ffffffffffffffffffffffffffffffffffffffff166008828154811061059e57fe5b9060005260206000200160009054906101000a900473ffffffffffffffffffffffffffffffffffffffff1673ffffffffffffffffffffffffffffffffffffffff1614156105ea57600191505b808060010191505061056d565b50600015158115151415610669576008339080600181540180825580915050600190039060005260206000200160009091909190916101000a81548173ffffffffffffffffffffffffffffffffffffffff021916908373ffffffffffffffffffffffffffffffffffffffff1602179055505b34600460008282540192505081905550600354601e42011161068e57601e4201610692565b6003545b60028190555033600060016101000a81548173ffffffffffffffffffffffffffffffffffffffff021916908373ffffffffffffffffffffffffffffffffffffffff16021790555050505b50565b60075481565b60045481565b60096020528060005260406000206000915090505481565b60035481565b600080600181111561071757fe5b6000809054906101000a900460ff16600181111561073157fe5b146107a4576040517f08c379a000000000000000000000000000000000000000000000000000000000815260040180806020018281038252601d8152602001807f6e6f7420706f737369626c6520696e2063757272656e7420737461746500000081525060200191505060405180910390fd5b60016000806101000a81548160ff021916908360018111156107c257fe5b02179055506107cf610a53565b50565b600080601e6001544203816107e357fe5b049050662386f26fc1000081026006540191505090565b60015481565b600060019054906101000a900473ffffffffffffffffffffffffffffffffffffffff1681565b60065481565b6008818154811061083957fe5b906000526020600020016000915054906101000a900473ffffffffffffffffffffffffffffffffffffffff1681565b60025481565b60006064600554606403600454028161088357fe5b049050600060019054906101000a900473ffffffffffffffffffffffffffffffffffffffff1673ffffffffffffffffffffffffffffffffffffffff166108fc606460328402816108cf57fe5b049081150290604051600060405180830381858888f193505050501580156108fb573d6000803e3d6000fd5b5060008090505b600880549050811015610a4f5760006008828154811061091e57fe5b9060005260206000200160009054906101000a900473ffffffffffffffffffffffffffffffffffffffff169050600060019054906101000a900473ffffffffffffffffffffffffffffffffffffffff1673ffffffffffffffffffffffffffffffffffffffff168173ffffffffffffffffffffffffffffffffffffffff1614610a41578073ffffffffffffffffffffffffffffffffffffffff166108fc600754600960008573ffffffffffffffffffffffffffffffffffffffff1673ffffffffffffffffffffffffffffffffffffffff1681526020019081526020016000205481610a0457fe5b0460646032870281610a1257fe5b04029081150290604051600060405180830381858888f19350505050158015610a3f573d6000803e3d6000fd5b505b508080600101915050610902565b5050565b60008090505b600880549050811015610aed576009600060088381548110610a7757fe5b9060005260206000200160009054906101000a900473ffffffffffffffffffffffffffffffffffffffff1673ffffffffffffffffffffffffffffffffffffffff1673ffffffffffffffffffffffffffffffffffffffff168152602001908152602001600020600090558080600101915050610a59565b5060086000610afc9190610b32565b600060078190555042600181905550601e4201600281905550620151804201600381905550670de0b6b3a7640000600681905550565b5080546000825590600052602060002090810190610b509190610b53565b50565b610b7591905b80821115610b71576000816000905550600101610b59565b5090565b9056fea2646970667358221220b67b2d8e24c205a81369cb434e2bc5607112c7f4ac73f50e18f75095f7b480e964736f6c63430006000033",
  "source": "pragma solidity >=0.5.4;\r\n\r\ncontract Fomo3D {\r\n    enum State {\r\n        INACTIVE,\r\n        ACTIVE\r\n    }\r\n    State public currentState = State.INACTIVE;\r\n    address payable public king;\r\n    uint public start;\r\n    uint public end;\r\n    uint public hardEnd;\r\n    uint public pot;\r\n    uint public houseFee = 2;\r\n    uint public initialKeyPrice;\r\n    uint public totalKeys;\r\n    address payable[] public keyHolders;\r\n    mapping(address => uint) public keys;\r\n    \r\n    function kickStart() \r\n        external \r\n        inState(State.INACTIVE) {\r\n        currentState = State.ACTIVE;\r\n        _createRound();\r\n    }\r\n    \r\n    function bet() \r\n        external \r\n        payable \r\n        inState(State.ACTIVE) {\r\n        if(block.timestamp > end || block.timestamp > hardEnd) {\r\n            payable(msg.sender).transfer(msg.value);\r\n            _distribute();\r\n            _createRound();\r\n            return;\r\n        }\r\n        \r\n        //Keys\r\n        uint keyCount = msg.value / getKeyPrice();\r\n        keys[msg.sender] += keyCount;\r\n        totalKeys += keyCount;\r\n        bool alreadyAdded = false;\r\n        for(uint i = 0; i < keyHolders.length; i++) {\r\n            if(keyHolders[i] == msg.sender) {\r\n                alreadyAdded = true;\r\n            }\r\n        }\r\n        if(alreadyAdded == false) {\r\n            keyHolders.push(payable(msg.sender));\r\n        }\r\n        \r\n        //Other\r\n        pot += msg.value;\r\n        end = block.timestamp + 30 > hardEnd ? hardEnd : block.timestamp + 30;\r\n        king = payable(msg.sender);\r\n    }\r\n    \r\n    function getKeyPrice() view public returns(uint) {\r\n        uint periodCount = (block.timestamp - start) / 30;\r\n        return initialKeyPrice + periodCount * 0.01 ether;\r\n    }\r\n    \r\n    function _distribute() internal {\r\n        uint netPot = pot * (100 - houseFee) / 100;\r\n        king.transfer((netPot * 50) / 100);\r\n        for(uint i = 0; i < keyHolders.length; i++) {\r\n            address payable keyHolder = keyHolders[i];\r\n            if(keyHolder != king) {\r\n                (keyHolder).transfer(((netPot * 50) / 100) * (keys[keyHolder] / totalKeys));\r\n            }\r\n        }\r\n    }\r\n        \r\n    function _createRound() internal  {\r\n        for(uint i = 0; i < keyHolders.length; i++) {\r\n            delete keys[keyHolders[i]];\r\n        }\r\n        delete keyHolders;\r\n        totalKeys = 0;\r\n        start = block.timestamp;\r\n        end = block.timestamp + 30;\r\n        hardEnd = block.timestamp + 86400;\r\n        initialKeyPrice = 1 ether;\r\n    }\r\n    \r\n    modifier inState(State state) {\r\n        require(currentState == state, 'not possible in current state');\r\n        _;\r\n    }\r\n    \r\n}\r\n",
  "sourcePath": "C:\\Users\\priya\\OneDrive\\Desktop\\Projects\\Eat the Blocks Pro\\Day 19 (Gambling Daap)\\tests\\end\\contracts\\Fomo3D.sol",
  "compiler": {
    "name": "solc",
    "version": "0.6.0+commit.26b70077.Emscripten.clang"
  },
  "schemaVersion": "3.4.3",
  "updatedAt": "2021-11-04T05:50:15.326Z",
  "devdoc": {
    "methods": {}
  },
  "userdoc": {
    "methods": {}
  }
}