{
  "contractName": "Lottery",
  "abi": [
    {
      "constant": true,
      "inputs": [],
      "name": "currentState",
      "outputs": [
        {
          "name": "",
          "type": "uint8"
        }
      ],
      "payable": false,
      "stateMutability": "view",
      "type": "function"
    },
    {
      "constant": true,
      "inputs": [],
      "name": "houseFee",
      "outputs": [
        {
          "name": "",
          "type": "uint256"
        }
      ],
      "payable": false,
      "stateMutability": "view",
      "type": "function"
    },
    {
      "constant": true,
      "inputs": [],
      "name": "betSize",
      "outputs": [
        {
          "name": "",
          "type": "uint256"
        }
      ],
      "payable": false,
      "stateMutability": "view",
      "type": "function"
    },
    {
      "constant": true,
      "inputs": [],
      "name": "betCount",
      "outputs": [
        {
          "name": "",
          "type": "uint256"
        }
      ],
      "payable": false,
      "stateMutability": "view",
      "type": "function"
    },
    {
      "constant": true,
      "inputs": [
        {
          "name": "",
          "type": "uint256"
        }
      ],
      "name": "players",
      "outputs": [
        {
          "name": "",
          "type": "address"
        }
      ],
      "payable": false,
      "stateMutability": "view",
      "type": "function"
    },
    {
      "constant": true,
      "inputs": [],
      "name": "admin",
      "outputs": [
        {
          "name": "",
          "type": "address"
        }
      ],
      "payable": false,
      "stateMutability": "view",
      "type": "function"
    },
    {
      "inputs": [
        {
          "name": "fee",
          "type": "uint256"
        }
      ],
      "payable": false,
      "stateMutability": "nonpayable",
      "type": "constructor"
    },
    {
      "constant": true,
      "inputs": [],
      "name": "getLength",
      "outputs": [
        {
          "name": "",
          "type": "uint256"
        }
      ],
      "payable": false,
      "stateMutability": "view",
      "type": "function"
    },
    {
      "constant": false,
      "inputs": [
        {
          "name": "count",
          "type": "uint256"
        },
        {
          "name": "size",
          "type": "uint256"
        }
      ],
      "name": "createBet",
      "outputs": [],
      "payable": false,
      "stateMutability": "nonpayable",
      "type": "function"
    },
    {
      "constant": false,
      "inputs": [],
      "name": "bet",
      "outputs": [],
      "payable": true,
      "stateMutability": "payable",
      "type": "function"
    },
    {
      "constant": false,
      "inputs": [],
      "name": "cancel",
      "outputs": [],
      "payable": false,
      "stateMutability": "nonpayable",
      "type": "function"
    }
  ],
  "bytecode": "0x60806040526000600160006101000a81548160ff0219169083600181111561002357fe5b021790555034801561003457600080fd5b50604051602080610b688339810180604052602081101561005457600080fd5b81019080805190602001909291905050506001811180156100755750606381105b15156100e9576040517f08c379a000000000000000000000000000000000000000000000000000000000815260040180806020018281038252601e8152602001807f6665652073686f756c64206265206265747765656e203120616e64203939000081525060200191505060405180910390fd5b33600560006101000a81548173ffffffffffffffffffffffffffffffffffffffff021916908373ffffffffffffffffffffffffffffffffffffffff1602179055508060048190555050610a27806101416000396000f3fe6080604052600436106100ae576000357c010000000000000000000000000000000000000000000000000000000090048063cf09449711610076578063cf09449714610177578063ea8a1af0146101a2578063f71d96cb146101b9578063f851a44014610234578063fff058e61461028b576100ae565b80630c3f6acf146100b35780630ed469b8146100ec57806311610c25146101175780635d1d3e2614610121578063be1c766b1461014c575b600080fd5b3480156100bf57600080fd5b506100c86102d0565b604051808260018111156100d857fe5b60ff16815260200191505060405180910390f35b3480156100f857600080fd5b506101016102e3565b6040518082815260200191505060405180910390f35b61011f6102e9565b005b34801561012d57600080fd5b50610136610518565b6040518082815260200191505060405180910390f35b34801561015857600080fd5b5061016161051e565b6040518082815260200191505060405180910390f35b34801561018357600080fd5b5061018c61052a565b6040518082815260200191505060405180910390f35b3480156101ae57600080fd5b506101b7610530565b005b3480156101c557600080fd5b506101f2600480360360208110156101dc57600080fd5b810190808035906020019092919050505061074c565b604051808273ffffffffffffffffffffffffffffffffffffffff1673ffffffffffffffffffffffffffffffffffffffff16815260200191505060405180910390f35b34801561024057600080fd5b5061024961078a565b604051808273ffffffffffffffffffffffffffffffffffffffff1673ffffffffffffffffffffffffffffffffffffffff16815260200191505060405180910390f35b34801561029757600080fd5b506102ce600480360360408110156102ae57600080fd5b8101908080359060200190929190803590602001909291905050506107b0565b005b600160009054906101000a900460ff1681565b60045481565b60018060009054906101000a900460ff16600181111561030557fe5b81600181111561031157fe5b141515610369576040517f08c379a00000000000000000000000000000000000000000000000000000000081526004018080602001828103825260218152602001806109db6021913960400191505060405180910390fd5b600354341415156103c5576040517f08c379a00000000000000000000000000000000000000000000000000000000081526004018080602001828103825260218152602001806109ba6021913960400191505060405180910390fd5b60003390806001815401808255809150509060018203906000526020600020016000909192909190916101000a81548173ffffffffffffffffffffffffffffffffffffffff021916908373ffffffffffffffffffffffffffffffffffffffff16021790555050600254600080549050141561051557600061044760025461092c565b905060008181548110151561045857fe5b9060005260206000200160009054906101000a900473ffffffffffffffffffffffffffffffffffffffff1673ffffffffffffffffffffffffffffffffffffffff166108fc606460045460640360025460035402028115156104b557fe5b049081150290604051600060405180830381858888f193505050501580156104e1573d6000803e3d6000fd5b506000600160006101000a81548160ff0219169083600181111561050157fe5b02179055506000806105139190610973565b505b50565b60035481565b60008080549050905090565b60025481565b60018060009054906101000a900460ff16600181111561054c57fe5b81600181111561055857fe5b1415156105b0576040517f08c379a00000000000000000000000000000000000000000000000000000000081526004018080602001828103825260218152602001806109db6021913960400191505060405180910390fd5b600560009054906101000a900473ffffffffffffffffffffffffffffffffffffffff1673ffffffffffffffffffffffffffffffffffffffff163373ffffffffffffffffffffffffffffffffffffffff16141515610675576040517f08c379a000000000000000000000000000000000000000000000000000000000815260040180806020018281038252600a8152602001807f6f6e6c792061646d696e0000000000000000000000000000000000000000000081525060200191505060405180910390fd5b60008090505b6000805490508110156107175760008181548110151561069757fe5b9060005260206000200160009054906101000a900473ffffffffffffffffffffffffffffffffffffffff1673ffffffffffffffffffffffffffffffffffffffff166108fc6003549081150290604051600060405180830381858888f19350505050158015610709573d6000803e3d6000fd5b50808060010191505061067b565b506000806107259190610973565b6000600160006101000a81548160ff0219169083600181111561074457fe5b021790555050565b60008181548110151561075b57fe5b906000526020600020016000915054906101000a900473ffffffffffffffffffffffffffffffffffffffff1681565b600560009054906101000a900473ffffffffffffffffffffffffffffffffffffffff1681565b6000600160009054906101000a900460ff1660018111156107cd57fe5b8160018111156107d957fe5b141515610831576040517f08c379a00000000000000000000000000000000000000000000000000000000081526004018080602001828103825260218152602001806109db6021913960400191505060405180910390fd5b600560009054906101000a900473ffffffffffffffffffffffffffffffffffffffff1673ffffffffffffffffffffffffffffffffffffffff163373ffffffffffffffffffffffffffffffffffffffff161415156108f6576040517f08c379a000000000000000000000000000000000000000000000000000000000815260040180806020018281038252600a8152602001807f6f6e6c792061646d696e0000000000000000000000000000000000000000000081525060200191505060405180910390fd5b826002819055508160038190555060018060006101000a81548160ff0219169083600181111561092257fe5b0217905550505050565b60008142446040516020018083815260200182815260200192505050604051602081830303815290604052805190602001206001900481151561096b57fe5b069050919050565b50805460008255906000526020600020908101906109919190610994565b50565b6109b691905b808211156109b257600081600090555060010161099a565b5090565b9056fe63616e206f6e6c79206265742065786163746c7920746865206265742073697a6563757272656e7420737461746520646f6573206e6f7420616c6c6f772074686973a165627a7a72305820f9784133eaafec85d5cae2daf7bea958760705642fb641853c8ca531d60eca080029",
  "source": "pragma solidity >=0.5.4;\r\n\r\ncontract Lottery {\r\n    enum State {\r\n        IDLE,\r\n        BETTING\r\n    }\r\n    address payable[] public players;\r\n    State public currentState = State.IDLE;\r\n    uint public betCount;\r\n    uint public betSize;\r\n    uint public houseFee;\r\n    address public admin;\r\n    \r\n    constructor(uint fee) public {\r\n        require(fee > 1 && fee < 99, 'fee should be between 1 and 99');\r\n        admin = msg.sender;\r\n        houseFee = fee;\r\n    }\r\n    \r\n    function getLength() external view returns(uint){\r\n        return players.length;\r\n    }\r\n\r\n    function createBet(uint count, uint size) \r\n        external \r\n        inState(State.IDLE) \r\n        onlyAdmin() {\r\n        betCount = count;\r\n        betSize = size;\r\n        currentState = State.BETTING;\r\n    }\r\n    \r\n    function bet() \r\n        external \r\n        payable \r\n        inState(State.BETTING) {\r\n        require(msg.value == betSize, 'can only bet exactly the bet size');\r\n        players.push(msg.sender);\r\n        if(players.length == betCount ) {\r\n            uint winner = _randomModulo(betCount);\r\n            players[winner].transfer((betSize * betCount) * (100 - houseFee) / 100);\r\n            currentState = State.IDLE;\r\n            delete players;\r\n        }\r\n    }\r\n    \r\n    function cancel() \r\n        external \r\n        inState(State.BETTING) \r\n        onlyAdmin() {\r\n        for(uint i = 0; i < players.length; i++) {\r\n            players[i].transfer(betSize);\r\n        }\r\n        delete players;\r\n        currentState = State.IDLE;\r\n    }\r\n    \r\n    function _randomModulo(uint modulo) view internal returns(uint) {\r\n        return uint(keccak256(abi.encodePacked(block.timestamp, block.difficulty))) % modulo;\r\n    }\r\n    \r\n    modifier inState(State state) {\r\n        require(state == currentState, 'current state does not allow this');\r\n        _;\r\n    }\r\n    \r\n    modifier onlyAdmin() {\r\n        require(msg.sender == admin, 'only admin');\r\n        _;\r\n    }\r\n}\r\n",
  "sourcePath": "C:\\Users\\priya\\OneDrive\\Desktop\\Projects\\Eat the Blocks Pro\\Day 18 (Lottery)\\tests\\contracts\\Lottery.sol",
  "compiler": {
    "name": "solc",
    "version": "0.5.4+commit.9549d8ff.Emscripten.clang"
  },
  "schemaVersion": "3.4.3",
  "updatedAt": "2021-11-03T05:34:14.573Z",
  "devdoc": {
    "methods": {}
  },
  "userdoc": {
    "methods": {}
  }
}