{
  "contractName": "Voting",
  "abi": [
    {
      "inputs": [],
      "stateMutability": "nonpayable",
      "type": "constructor"
    },
    {
      "inputs": [],
      "name": "admin",
      "outputs": [
        {
          "internalType": "address",
          "name": "",
          "type": "address"
        }
      ],
      "stateMutability": "view",
      "type": "function"
    },
    {
      "inputs": [
        {
          "internalType": "uint256",
          "name": "",
          "type": "uint256"
        }
      ],
      "name": "ballots",
      "outputs": [
        {
          "internalType": "uint256",
          "name": "id",
          "type": "uint256"
        },
        {
          "internalType": "string",
          "name": "name",
          "type": "string"
        },
        {
          "internalType": "uint256",
          "name": "end",
          "type": "uint256"
        }
      ],
      "stateMutability": "view",
      "type": "function"
    },
    {
      "inputs": [
        {
          "internalType": "address",
          "name": "",
          "type": "address"
        }
      ],
      "name": "voters",
      "outputs": [
        {
          "internalType": "bool",
          "name": "",
          "type": "bool"
        }
      ],
      "stateMutability": "view",
      "type": "function"
    },
    {
      "inputs": [
        {
          "internalType": "address[]",
          "name": "_voters",
          "type": "address[]"
        }
      ],
      "name": "addVoters",
      "outputs": [],
      "stateMutability": "nonpayable",
      "type": "function"
    },
    {
      "inputs": [
        {
          "internalType": "string",
          "name": "name",
          "type": "string"
        },
        {
          "internalType": "string[]",
          "name": "_choices",
          "type": "string[]"
        },
        {
          "internalType": "uint256",
          "name": "offset",
          "type": "uint256"
        }
      ],
      "name": "createBallot",
      "outputs": [],
      "stateMutability": "nonpayable",
      "type": "function"
    },
    {
      "inputs": [
        {
          "internalType": "uint256",
          "name": "ballotId",
          "type": "uint256"
        },
        {
          "internalType": "uint256",
          "name": "choiceId",
          "type": "uint256"
        }
      ],
      "name": "vote",
      "outputs": [],
      "stateMutability": "nonpayable",
      "type": "function"
    },
    {
      "inputs": [
        {
          "internalType": "uint256",
          "name": "ballotId",
          "type": "uint256"
        }
      ],
      "name": "results",
      "outputs": [
        {
          "components": [
            {
              "internalType": "uint256",
              "name": "id",
              "type": "uint256"
            },
            {
              "internalType": "string",
              "name": "name",
              "type": "string"
            },
            {
              "internalType": "uint256",
              "name": "votes",
              "type": "uint256"
            }
          ],
          "internalType": "struct Voting.Choice[]",
          "name": "",
          "type": "tuple[]"
        }
      ],
      "stateMutability": "view",
      "type": "function"
    }
  ],
  "bytecode": "0x608060405234801561001057600080fd5b5033600360006101000a81548173ffffffffffffffffffffffffffffffffffffffff021916908373ffffffffffffffffffffffffffffffffffffffff1602179055506112c5806100616000396000f3fe608060405234801561001057600080fd5b506004361061007d5760003560e01c80638203373a1161005b5780638203373a14610100578063a3ec138d1461011c578063b384abef1461014c578063f851a440146101685761007d565b80631b0c27da1461008257806320faae8e146100b25780635c632b38146100ce575b600080fd5b61009c60048036038101906100979190610c0b565b610186565b6040516100a99190610fc4565b60405180910390f35b6100cc60048036038101906100c79190610b8c565b61030a565b005b6100e860048036038101906100e39190610c0b565b6104d9565b6040516100f7939291906110a1565b60405180910390f35b61011a60048036038101906101159190610b47565b61059b565b005b61013660048036038101906101319190610b1e565b6106c2565b6040516101439190610fe6565b60405180910390f35b61016660048036038101906101619190610c34565b6106e2565b005b61017061091f565b60405161017d9190610fa9565b60405180910390f35b606060016000838152602001908152602001600020600301544210156101e1576040517f08c379a00000000000000000000000000000000000000000000000000000000081526004016101d890611081565b60405180910390fd5b60016000838152602001908152602001600020600201805480602002602001604051908101604052809291908181526020016000905b828210156102ff578382906000526020600020906003020160405180606001604052908160008201548152602001600182018054600181600116156101000203166002900480601f0160208091040260200160405190810160405280929190818152602001828054600181600116156101000203166002900480156102dd5780601f106102b2576101008083540402835291602001916102dd565b820191906000526020600020905b8154815290600101906020018083116102c057829003601f168201915b5050505050815260200160028201548152505081526020019060010190610217565b505050509050919050565b600360009054906101000a900473ffffffffffffffffffffffffffffffffffffffff1673ffffffffffffffffffffffffffffffffffffffff163373ffffffffffffffffffffffffffffffffffffffff161461039a576040517f08c379a000000000000000000000000000000000000000000000000000000000815260040161039190611041565b60405180910390fd5b600254600160006002548152602001908152602001600020600001819055508260016000600254815260200190815260200160002060010190805190602001906103e5929190610945565b508042016001600060025481526020019081526020016000206003018190555060005b82518110156104c157600160006002548152602001908152602001600020600201604051806060016040528083815260200185848151811061044657fe5b60200260200101518152602001600081525090806001815401808255809150506001900390600052602060002090600302016000909190919091506000820151816000015560208201518160010190805190602001906104a7929190610945565b506040820151816002015550508080600101915050610408565b50600260008154809291906001019190505550505050565b6001602052806000526040600020600091509050806000015490806001018054600181600116156101000203166002900480601f01602080910402602001604051908101604052809291908181526020018280546001816001161561010002031660029004801561058b5780601f106105605761010080835404028352916020019161058b565b820191906000526020600020905b81548152906001019060200180831161056e57829003601f168201915b5050505050908060030154905083565b600360009054906101000a900473ffffffffffffffffffffffffffffffffffffffff1673ffffffffffffffffffffffffffffffffffffffff163373ffffffffffffffffffffffffffffffffffffffff161461062b576040517f08c379a000000000000000000000000000000000000000000000000000000000815260040161062290611041565b60405180910390fd5b60005b828290508110156106bd57600160008085858581811061064a57fe5b905060200201602081019061065f9190610b1e565b73ffffffffffffffffffffffffffffffffffffffff1673ffffffffffffffffffffffffffffffffffffffff16815260200190815260200160002060006101000a81548160ff021916908315150217905550808060010191505061062e565b505050565b60006020528060005260406000206000915054906101000a900460ff1681565b600115156000803373ffffffffffffffffffffffffffffffffffffffff1673ffffffffffffffffffffffffffffffffffffffff16815260200190815260200160002060009054906101000a900460ff16151514610774576040517f08c379a000000000000000000000000000000000000000000000000000000000815260040161076b90611061565b60405180910390fd5b60001515600460003373ffffffffffffffffffffffffffffffffffffffff1673ffffffffffffffffffffffffffffffffffffffff168152602001908152602001600020600084815260200190815260200160002060009054906101000a900460ff16151514610818576040517f08c379a000000000000000000000000000000000000000000000000000000000815260040161080f90611001565b60405180910390fd5b60016000838152602001908152602001600020600301544210610870576040517f08c379a000000000000000000000000000000000000000000000000000000000815260040161086790611021565b60405180910390fd5b6001600460003373ffffffffffffffffffffffffffffffffffffffff1673ffffffffffffffffffffffffffffffffffffffff168152602001908152602001600020600084815260200190815260200160002060006101000a81548160ff0219169083151502179055506001600083815260200190815260200160002060020181815481106108fa57fe5b9060005260206000209060030201600201600081548092919060010191905055505050565b600360009054906101000a900473ffffffffffffffffffffffffffffffffffffffff1681565b828054600181600116156101000203166002900490600052602060002090601f016020900481019282601f1061098657805160ff19168380011785556109b4565b828001600101855582156109b4579182015b828111156109b3578251825591602001919060010190610998565b5b5090506109c191906109c5565b5090565b5b808211156109de5760008160009055506001016109c6565b5090565b6000813590506109f181611261565b92915050565b60008083601f840112610a0957600080fd5b8235905067ffffffffffffffff811115610a2257600080fd5b602083019150836020820283011115610a3a57600080fd5b9250929050565b600082601f830112610a5257600080fd5b8135610a65610a608261110c565b6110df565b9150818183526020840193506020810190508360005b83811015610aab5781358601610a918882610ab5565b845260208401935060208301925050600181019050610a7b565b5050505092915050565b600082601f830112610ac657600080fd5b8135610ad9610ad482611134565b6110df565b91508082526020830160208301858383011115610af557600080fd5b610b0083828461120e565b50505092915050565b600081359050610b1881611278565b92915050565b600060208284031215610b3057600080fd5b6000610b3e848285016109e2565b91505092915050565b60008060208385031215610b5a57600080fd5b600083013567ffffffffffffffff811115610b7457600080fd5b610b80858286016109f7565b92509250509250929050565b600080600060608486031215610ba157600080fd5b600084013567ffffffffffffffff811115610bbb57600080fd5b610bc786828701610ab5565b935050602084013567ffffffffffffffff811115610be457600080fd5b610bf086828701610a41565b9250506040610c0186828701610b09565b9150509250925092565b600060208284031215610c1d57600080fd5b6000610c2b84828501610b09565b91505092915050565b60008060408385031215610c4757600080fd5b6000610c5585828601610b09565b9250506020610c6685828601610b09565b9150509250929050565b6000610c7c8383610f3b565b905092915050565b610c8d816111c6565b82525050565b6000610c9e82611170565b610ca88185611193565b935083602082028501610cba85611160565b8060005b85811015610cf65784840389528151610cd78582610c70565b9450610ce283611186565b925060208a01995050600181019050610cbe565b50829750879550505050505092915050565b610d11816111d8565b82525050565b6000610d228261117b565b610d2c81856111a4565b9350610d3c81856020860161121d565b610d4581611250565b840191505092915050565b6000610d5b8261117b565b610d6581856111b5565b9350610d7581856020860161121d565b610d7e81611250565b840191505092915050565b6000610d966025836111b5565b91507f766f7465722063616e206f6e6c7920766f7465206f6e636520666f722061206260008301527f616c6c6f740000000000000000000000000000000000000000000000000000006020830152604082019050919050565b6000610dfc6023836111b5565b91507f63616e206f6e6c7920766f746520756e74696c2062616c6c6f7420656e64206460008301527f61746500000000000000000000000000000000000000000000000000000000006020830152604082019050919050565b6000610e62600a836111b5565b91507f6f6e6c792061646d696e000000000000000000000000000000000000000000006000830152602082019050919050565b6000610ea26014836111b5565b91507f6f6e6c7920766f746572732063616e20766f74650000000000000000000000006000830152602082019050919050565b6000610ee2602e836111b5565b91507f63616e6e6f7420736565207468652062616c6c6f7420726573756c742062656660008301527f6f72652062616c6c6f7420656e640000000000000000000000000000000000006020830152604082019050919050565b6000606083016000830151610f536000860182610f8b565b5060208301518482036020860152610f6b8282610d17565b9150506040830151610f806040860182610f8b565b508091505092915050565b610f9481611204565b82525050565b610fa381611204565b82525050565b6000602082019050610fbe6000830184610c84565b92915050565b60006020820190508181036000830152610fde8184610c93565b905092915050565b6000602082019050610ffb6000830184610d08565b92915050565b6000602082019050818103600083015261101a81610d89565b9050919050565b6000602082019050818103600083015261103a81610def565b9050919050565b6000602082019050818103600083015261105a81610e55565b9050919050565b6000602082019050818103600083015261107a81610e95565b9050919050565b6000602082019050818103600083015261109a81610ed5565b9050919050565b60006060820190506110b66000830186610f9a565b81810360208301526110c88185610d50565b90506110d76040830184610f9a565b949350505050565b6000604051905081810181811067ffffffffffffffff8211171561110257600080fd5b8060405250919050565b600067ffffffffffffffff82111561112357600080fd5b602082029050602081019050919050565b600067ffffffffffffffff82111561114b57600080fd5b601f19601f8301169050602081019050919050565b6000819050602082019050919050565b600081519050919050565b600081519050919050565b6000602082019050919050565b600082825260208201905092915050565b600082825260208201905092915050565b600082825260208201905092915050565b60006111d1826111e4565b9050919050565b60008115159050919050565b600073ffffffffffffffffffffffffffffffffffffffff82169050919050565b6000819050919050565b82818337600083830152505050565b60005b8381101561123b578082015181840152602081019050611220565b8381111561124a576000848401525b50505050565b6000601f19601f8301169050919050565b61126a816111c6565b811461127557600080fd5b50565b61128181611204565b811461128c57600080fd5b5056fea264697066735822122074f5715068ac40978279a5d9c0a128be8cb5395c6246f9923449e310eddafe1664736f6c63430007000033",
  "immutableReferences": {},
  "source": "pragma solidity >=0.5.2;\r\npragma experimental ABIEncoderV2;\r\n\r\ncontract Voting {\r\n  mapping(address => bool) public voters;\r\n  struct Choice {\r\n    uint id;\r\n    string name;\r\n    uint votes;\r\n  }\r\n  struct Ballot {\r\n    uint id;\r\n    string name;\r\n    Choice[] choices;\r\n    uint end;\r\n  }\r\n  mapping(uint => Ballot) public ballots;\r\n  uint nextBallotId;\r\n  address public admin;\r\n  mapping(address => mapping(uint => bool)) votes;\r\n  \r\n  constructor() {\r\n    admin = msg.sender;\r\n  }\r\n  \r\n  function addVoters(address[] calldata _voters) external onlyAdmin() {\r\n    for(uint i = 0; i < _voters.length; i++) {\r\n        voters[_voters[i]] = true;\r\n    }\r\n  }\r\n\r\n  function createBallot(\r\n    string memory name,\r\n    string[] memory _choices,\r\n    uint offset\r\n    ) public onlyAdmin() {\r\n      ballots[nextBallotId].id = nextBallotId;\r\n      ballots[nextBallotId].name = name;\r\n      ballots[nextBallotId].end = block.timestamp + offset;\r\n      for(uint i = 0; i < _choices.length ; i++) {\r\n        ballots[nextBallotId].choices.push(Choice(i, _choices[i], 0));\r\n      }\r\n      nextBallotId++;\r\n  }\r\n\r\n  function vote(uint ballotId, uint choiceId) external {\r\n    require(voters[msg.sender] == true, 'only voters can vote');\r\n    require(votes[msg.sender][ballotId] == false, 'voter can only vote once for a ballot');\r\n    require(block.timestamp < ballots[ballotId].end, 'can only vote until ballot end date');\r\n    votes[msg.sender][ballotId] = true;\r\n    ballots[ballotId].choices[choiceId].votes++;\r\n  }\r\n\r\n  //If `pragma experimental ABIEncoderV2`\r\n  function results(uint ballotId) \r\n    view \r\n    external \r\n    returns(Choice[] memory) {\r\n    require(block.timestamp >= ballots[ballotId].end, 'cannot see the ballot result before ballot end');\r\n    return ballots[ballotId].choices;\r\n  }\r\n\r\n  //If no `pragma experimental ABIEncoderV2`\r\n  //function results(uint ballotId) \r\n  //  view \r\n  //  external \r\n  //  returns(uint[] memory, string[] memory, uint[]memory) {\r\n  //  require(block.timestamp >= ballots[ballotId].end, 'can only see result after ballot end');\r\n  //  Choice[] storage choices = ballots[ballotId].choices;\r\n  //  uint[] memory ids = new uint[](choices.length);\r\n  //  string[] memory names = new string[](choices.length);\r\n  //  uint[] memory votes = new uint[](choices.length);\r\n  //  for(uint i = 0; i < choices.length; i++) {\r\n  //    ids[i] = choices[i].id;\r\n  //    names[i] = choices[i].name;\r\n  //    votes[i] = choices[i].votes;\r\n  //  }\r\n  //  return(ids, names, votes);\r\n  //}\r\n\r\n  modifier onlyAdmin() {\r\n    require(msg.sender == admin, 'only admin');\r\n    _;\r\n  }\r\n}\r\n",
  "sourcePath": "C:\\Users\\priya\\OneDrive\\Desktop\\Projects\\Eat the Blocks Pro\\Day 14 (Voting)\\tests\\contracts\\Voting.sol",
  "compiler": {
    "name": "solc",
    "version": "0.7.0+commit.9e61f92b.Emscripten.clang"
  },
  "schemaVersion": "3.4.3",
  "updatedAt": "2021-10-29T16:01:50.131Z",
  "devdoc": {
    "kind": "dev",
    "methods": {},
    "version": 1
  },
  "userdoc": {
    "kind": "user",
    "methods": {},
    "version": 1
  }
}