{
  "contractName": "DeedMultiPayouts",
  "abi": [
    {
      "inputs": [
        {
          "internalType": "address",
          "name": "_layer",
          "type": "address"
        },
        {
          "internalType": "address payable",
          "name": "_beneficiary",
          "type": "address"
        },
        {
          "internalType": "uint256",
          "name": "fromNow",
          "type": "uint256"
        }
      ],
      "payable": true,
      "stateMutability": "payable",
      "type": "constructor"
    },
    {
      "constant": true,
      "inputs": [],
      "name": "amount",
      "outputs": [
        {
          "internalType": "uint256",
          "name": "",
          "type": "uint256"
        }
      ],
      "payable": false,
      "stateMutability": "view",
      "type": "function"
    },
    {
      "constant": true,
      "inputs": [],
      "name": "beneficiary",
      "outputs": [
        {
          "internalType": "address payable",
          "name": "",
          "type": "address"
        }
      ],
      "payable": false,
      "stateMutability": "view",
      "type": "function"
    },
    {
      "constant": true,
      "inputs": [],
      "name": "earliest",
      "outputs": [
        {
          "internalType": "uint256",
          "name": "",
          "type": "uint256"
        }
      ],
      "payable": false,
      "stateMutability": "view",
      "type": "function"
    },
    {
      "constant": true,
      "inputs": [],
      "name": "lawyer",
      "outputs": [
        {
          "internalType": "address",
          "name": "",
          "type": "address"
        }
      ],
      "payable": false,
      "stateMutability": "view",
      "type": "function"
    },
    {
      "constant": true,
      "inputs": [],
      "name": "paidPayouts",
      "outputs": [
        {
          "internalType": "uint256",
          "name": "",
          "type": "uint256"
        }
      ],
      "payable": false,
      "stateMutability": "view",
      "type": "function"
    },
    {
      "constant": false,
      "inputs": [],
      "name": "withdraw",
      "outputs": [],
      "payable": false,
      "stateMutability": "nonpayable",
      "type": "function"
    }
  ],
  "bytecode": "0x608060405260006004556040516105743803806105748339818101604052606081101561002b57600080fd5b81019080805190602001909291908051906020019092919080519060200190929190505050816000806101000a81548173ffffffffffffffffffffffffffffffffffffffff021916908373ffffffffffffffffffffffffffffffffffffffff16021790555081600160006101000a81548173ffffffffffffffffffffffffffffffffffffffff021916908373ffffffffffffffffffffffffffffffffffffffff160217905550600a34816100db57fe5b04600381905550804201600281905550505050610477806100fd6000396000f3fe608060405234801561001057600080fd5b50600436106100625760003560e01c806338af3eed146100675780633bfb6e31146100b15780633ccfd60b146100fb5780634a8a7ce3146101055780635dd65d3b14610123578063aa8c217c14610141575b600080fd5b61006f61015f565b604051808273ffffffffffffffffffffffffffffffffffffffff1673ffffffffffffffffffffffffffffffffffffffff16815260200191505060405180910390f35b6100b9610185565b604051808273ffffffffffffffffffffffffffffffffffffffff1673ffffffffffffffffffffffffffffffffffffffff16815260200191505060405180910390f35b6101036101aa565b005b61010d6103ff565b6040518082815260200191505060405180910390f35b61012b610405565b6040518082815260200191505060405180910390f35b61014961040b565b6040518082815260200191505060405180910390f35b600160009054906101000a900473ffffffffffffffffffffffffffffffffffffffff1681565b6000809054906101000a900473ffffffffffffffffffffffffffffffffffffffff1681565b600160009054906101000a900473ffffffffffffffffffffffffffffffffffffffff1673ffffffffffffffffffffffffffffffffffffffff163373ffffffffffffffffffffffffffffffffffffffff161461026d576040517f08c379a00000000000000000000000000000000000000000000000000000000081526004018080602001828103825260108152602001807f62656e6566696369617279206f6e6c790000000000000000000000000000000081525060200191505060405180910390fd5b6002544210156102c8576040517f08c379a00000000000000000000000000000000000000000000000000000000081526004018080602001828103825260318152602001806104126031913960400191505060405180910390fd5b600a60045410610340576040517f08c379a000000000000000000000000000000000000000000000000000000000815260040180806020018281038252600f8152602001807f6e6f207061796f757473206c656674000000000000000000000000000000000081525060200191505060405180910390fd5b6000600160025442038161035057fe5b049050600454810390506000600a6004548301101561036f5781610376565b600454600a035b905080600460008282540192505081905550600060035482029050600160009054906101000a900473ffffffffffffffffffffffffffffffffffffffff1673ffffffffffffffffffffffffffffffffffffffff166108fc829081150290604051600060405180830381858888f193505050501580156103f9573d6000803e3d6000fd5b50505050565b60045481565b60025481565b6003548156fe43757272656e742074696d652073686f756c642062652067726561746572207468616e206561726c696573742064617465a265627a7a72315820070e40b0eb5061156af7e0320154040c8cbfcac988933909c03a5cdb76c19b1664736f6c63430005100032",
  "source": "pragma solidity >=0.5.0;\r\n\r\ncontract DeedMultiPayouts {\r\n    \r\n    address public lawyer;\r\n    address payable public beneficiary;\r\n    uint public earliest;\r\n    \r\n    uint public amount;\r\n    uint constant PAYOUTS = 10;\r\n    uint constant INTERVAL = 1;\r\n    uint public paidPayouts = 0;\r\n    \r\n    \r\n    constructor(address _layer,address payable _beneficiary,uint fromNow)public payable{\r\n        lawyer = _beneficiary;\r\n        beneficiary = _beneficiary;\r\n        amount = msg.value/PAYOUTS;\r\n        earliest = block.timestamp + fromNow;\r\n    }\r\n    \r\n    function withdraw() public {\r\n        require(msg.sender == beneficiary, \"beneficiary only\");\r\n        require(block.timestamp >= earliest, \"Current time should be greater than earliest date\");\r\n        require(paidPayouts<PAYOUTS,\"no payouts left\");\r\n        \r\n        uint elligible = (block.timestamp - earliest)/INTERVAL;\r\n        \r\n        elligible = elligible - paidPayouts;\r\n        \r\n        uint due = (elligible + paidPayouts) >= PAYOUTS ? PAYOUTS - paidPayouts : elligible;\r\n        \r\n        paidPayouts += due;\r\n        \r\n        uint toTransfer = due*amount;\r\n        \r\n        beneficiary.transfer(toTransfer);\r\n    }\r\n        \r\n    \r\n}",
  "sourcePath": "C:\\Users\\priya\\OneDrive\\Desktop\\Projects\\Eat the Blocks Pro\\Day 9 (Deed Multi Payout)\\tests\\contracts\\DeedMultiPayout.sol",
  "compiler": {
    "name": "solc",
    "version": "0.5.16+commit.9c3226ce.Emscripten.clang"
  },
  "schemaVersion": "3.4.3",
  "updatedAt": "2021-10-24T08:14:48.944Z",
  "devdoc": {
    "methods": {}
  },
  "userdoc": {
    "methods": {}
  }
}